S01600004D79436C6F636B313330374C45442E73726563BC
S113000012C02CC02BC0B7C129C028C07CC126C0D7
S113001025C0D2C123C022C021C020C01FC01EC021
S11300201DC01CC01BC011241FBECFE5D4E0DEBF21
S1130030CDBF10E0A0E6B0E0E4E1F5E102C0059038
S11300400D92AC37B107D9F720E0ACE7B0E001C0BE
S11300501D92A93DB207E1F7D1D45ACAD1CF20915C
S11300607C00283078F490917E00E92FF0E0E1588C
S1130070FF4F80832F5F20937C0081E0890F87707E
S113008080937E000895EF92FF920F931F93CF9376
S1130090DF9300D0CDB7DEB72FEF260F30E0A901F4
S11300A049575F4F7A01FA014081F901E457FF4F44
S11300B0908190938B008901000F111FD801AE56D7
S11300C0BF4F2D913C913093910020939000882351
S11300D0E1F0253F51E03507C8F52F5F3F4F3093DE
S11300E09100209390002B30310580F140FD03C036
S11300F0416091E001C090E0253F314041F541FD70
S113010026C04B7F426092E022C040FF0AC041FDFE
S113011008C042FF03C04B7F95E004C010928B00DF
S1130120446090E042FF08C080918B00853620F047
S113013010928B004B7F93E040FF02C041FD94E09E
S113014010929100109290004C7F01C090E042FF09
S113015007C080918B00853618F48F5F80938B00E5
S113016080918B008083992341F0862F4A83998361
S113017076DF9981892F73DF4A81F801EE56FF4FAC
S1130180809190009091910091838083F701408346
S11301900F900F90DF91CF911F910F91FF90EF90EF
S11301A0089520917C00222379F090917D00E92F1D
S11301B0F0E0E158FF4F8081215020937C009F5F45
S11301C0977090937D00089580E00895CF93DF9316
S11301D0E2E9F0E0C7E8D0E0ACE8B0E011921192B7
S11301E019921D9280E0EA39F807C1F7EFE7F0E0D1
S11301F0119280E0E738F807D9F710927E00109248
S11302007D0010927C00899891988A9892988B9896
S1130210939888989098DF91CF910895CF9380B365
S1130220C1E08695817061E08C272DDF80B382FB6D
S1130230882780F962E08C2726DF80B383FB882738
S113024080F963E08C271FDF80B3817064E08C2722
S1130250CF9119CF8EB588608EBD89B7806189BF73
S113026085E08BBD8CED8ABD8EB582608EBD089510
S1130270E62FF0E0EC58FF4F80830895E82FF0E07C
S1130280E556FF4F6083089510929B0010929C00E6
S113029010929D0010929E0010929F001092A00058
S11302A008958BE0809374008093750080937600AA
S11302B08093770080937800809379000895482F85
S11302C050E021E030E0082E01C0220F0A94EAF742
S11302D020952FB9779BFECFFA01EC58FF4FE081B0
S11302E0F0E0E05AFF4F8081FA01E556FF4F90811C
S11302F0992319F090916C00892B8FB9779BFECFCD
S1130300C29AC29808951F920F920FB60F921124A9
S11303102F933F934F935F936F937F938F939F9309
S1130320AF93BF93EF93FF9380919A00C8DF8091BE
S11303309A008F5F863018F480939A0002C010925E
S11303409A00FF91EF91BF91AF919F918F917F910F
S11303506F915F914F913F912F910F900FBE0F902E
S11303601F9018958093D6008093A9008093A800CD
S11303708093A70008951F920F920FB60F92112435
S11303808F939F9380917A00815080937A0080911B
S11303907A0081110AC09091A10081E0911180E05E
S11303A08093A1008FEF80937A009F918F910F909B
S11303B00FBE0F901F9018951F920F920FB60F92B9
S11303C011248F939F938091A2008F5F8093A2004A
S11303D0811114C08091D6008093A6008091A90059
S11303E08093A5008091A8008093A4008091A70029
S11303F08093A300959A969A979AC09A9091A60092
S11304008091A200981301C095989091A5008091C5
S1130410A200981301C096989091A4008091A20024
S1130420981301C097989091A3008091A20098130B
S113043001C0C0989F918F910F900FBE0F901F9095
S11304401895C69A2FEF80E792E0215080409040A3
S1130450E1F700C00000C698089587B3886287BB9F
S113046088B3877D88BBBA9AC29880E58DB9089510
S11304708D9A8E9A8F9AB89A959896989798C098CC
S1130480BF9883B7816083BF12BE89B7816089BF7B
S11304900895CF936CD780ED73D78091B3008330E8
S11304A009F467C028F4813061F08230B1F152C19F
S11304B0853009F4FAC008F4CCC0863009F420C1B0
S11304C049C182E05DD78091B200813089F4809186
S11304D0CC00873138F48F5F3ED752D78091CC005F
S11304E08F5F13C080E037D74BD71092CC0032C156
S11304F0823009F02FC18091CC00882349F08150CB
S11305002AD73ED78091CC0081508093CC0022C161
S113051087E121D735D787E1F8CF81E031D78091C2
S1130520B200813089F48091CD008B3338F48F5F31
S113053012D726D78091CD008F5F13C080E00BD7F0
S11305401FD71092CD0006C1823009F003C18091FB
S1130550CD00882349F08150FED612D78091CD007A
S113056081508093CD00F6C08BE3F5D609D78BE399
S1130570F8CF84E005D79091C9008091B200923001
S113058071F59091C800937039F4813081F48091B1
S1130590CA008D3138F441C08130A9F48091CA0079
S11305A08C31D8F181E0D7D6EBD681E04FC08230D0
S11305B009F0D0C08091CA008230E8F58DE1CBD635
S11305C0DFD68DE143C0823009F0C4C08091CA00F7
S11305D0823088F58CE1BFD6D3D68CE137C09D7FBD
S11305E0943011F0993099F4813029F48091CA0043
S11305F08E31C0F612C0823009F0ACC08091CA00BE
S11306008230C8F48EE1A7D6BBD68EE11FC08130FC
S113061059F48091CA008F3128F68F5F9CD6B0D6EA
S11306208091CA008F5F12C0823009F093C080911C
S1130630CA00823038F081508ED6A2D68091CA008A
S1130640815004C08FE187D69BD68FE18093CA0086
S113065081C085E095D6C091B200C13089F4809103
S1130660C9008C3038F48F5F76D68AD68091C90061
S11306708F5F18C081E06FD683D6C093C9006AC06B
S1130680C23009F067C08091C900823038F08150CF
S113069062D676D68091C900815004C08CE05BD6C6
S11306A06FD68CE08093C90055C086E069D6C091AE
S11306B0B200C13089F48091C800833638F48F5F6A
S11306C04AD65ED68091C8008F5F17C081E043D6BA
S11306D057D6C093C8003EC0C230E1F58091C8002F
S11306E0823038F0815037D64BD68091C800815083
S11306F004C083E630D644D683E68093C8002AC07B
S113070083E03ED6C091B200C13089F48091CB0021
S1130710873038F48F5F1FD633D68091CB008F5F3C
S113072017C081E018D62CD6C093CB0013C0C230BA
S113073089F48091CB00823038F081500CD620D6D9
S11307408091CB00815004C087E005D619D687E09C
S11307508093CB00CF9111C68091B0009091B100ED
S11307608930910509F45EC030F48730910569F051
S1130770089789F108958B30910509F49FC008F416
S113078077C00C9709F4C0C008958091AE00909191
S1130790AF008130910581F48091BE009091BF003B
S11307A08A30910510F4019602C083E090E09093A2
S11307B0BF008093BE000895029709F0C9C08091DC
S11307C0BE009091BF008530910510F00197EFCFE6
S11307D08AE090E0ECCF8091AE009091AF00813040
S11307E0910571F48091BC009091BD008B3391050B
S11307F010F401960FC01092BD001092BC00089531
S1130800029709F0A5C08091BC009091BD000097AB
S113081031F001979093BD008093BC0008958BE361
S113082090E0F8CF8091AE009091AF0081309105B7
S113083061F48091BA009091BB008837910510F45F
S11308400F9611C08FE090E00EC0029709F080C0AF
S11308508091BA009091BB008031910510F00F9700
S113086002C088E790E09093BB008093BA0008959B
S11308708091AE009091AF008130910561F4809138
S1130880B8009091B9008531910510F4019611C01A
S11308908DE090E00EC0029709F05AC08091B80034
S11308A09091B9008E30910510F0019702C085E156
S11308B090E09093B9008093B80008958091AE00C1
S11308C09091AF008130910571F48091B6009091C0
S11308D0B7008B33910510F4019611C01092B70044
S11308E01092B6000895029799F58091B600909100
S11308F0B700009711F0019702C08BE390E090934A
S1130900B7008093B60008958091AE009091AF0037
S11309108130910561F48091B4009091B5008837DD
S1130920910510F40F9610C08FE090E00DC002976F
S113093079F48091B4009091B5008031910510F064
S11309400F9702C088E790E09093B5008093B400BD
S113095008950F931F93CF93DF931F92CDB7DEB704
S1130960062F1AE0612F35D561E0998381DC62E0BE
S11309709981892F7DDC802F612F2BD563E09983AA
S113098077DC64E09981892F0F90DF91CF911F91DB
S11309900F916ECC0F931F93CF93DF9300D0CDB7FD
S11309A0DEB7062F1AE0612F14D560E04A839983DD
S11309B05FDC61E09981892F5BDC61E081E05EDCD2
S11309C0802F612F06D562E0998352DC63E0998120
S11309D0892F4EDC61E083E051DC4A81842F612F52
S11309E0F8D464E0998344DC65E09981892F0F9001
S11309F00F90DF91CF911F910F913ACCCF93DF935A
S1130A0000D0CDB7DEB7B0D433DDE0DBBE9A25DD50
S1130A1021DC959A969A979AC09A7894A398A7D429
S1130A2080EDAED487E0ACD480E1AAD4A6D48FEF15
S1130A3083BD85B5886085BD89B7806889BF85B564
S1130A40836085BD8AE090E03ED59093BF0080939B
S1130A50BE0088E090E037D59093BD008093BC0041
S1130A6086E090E030D59093BB008093BA0084E098
S1130A7090E029D59093B9008093B80082E090E08B
S1130A8022D59093B7008093B60080E090E01BD508
S1130A909093B5008093B40044E0842E912C52E0EE
S1130AA0A52EB12C63E0C62ED12CEE24E394F12CB8
S1130AB0E6E02E2EF8E04F2E512CA7E06A2E712C82
S1130AC004E610E08091B0009091B100892B09F008
S1130AD065C18091B300811161C1B79B14C120919C
S1130AE0CC002A8330E06091BE007091BF002617CD
S1130AF0370750F04091CD0050E08091BC009091B8
S1130B00BD008417950778F06217730708F0DDC0FD
S1130B104091CD0050E08091BC009091BD004817F9
S1130B20590708F0D2C0A091CD004A2F50E080911F
S1130B30BC009091BD008417950790F43A80361A52
S1130B403092C600EA2FE81BE093C700F0E0BCE354
S1130B503B9EE00DF11D1124F093C300E093C2000D
S1130B6062177307C0F46A2F70E06817790798F466
S1130B709091BE006A81691B6093C6008A1B8093B2
S1130B80C700ECE36E9FB0011124681B71097093D8
S1130B90C3006093C2008091C2009091C300E091B1
S1130BA0BA00F091BB008E179F07C8F49C0140E087
S1130BB050E02150310941095109AFEFB0E045D46B
S1130BC09F0140E050E0215031094109510921D4ED
S1130BD0822FC8DBF092AD00E092AC007CC0809123
S1130BE0B8009091B9002817390738F06091B60021
S1130BF07091B7006417750760F08217930708F0C7
S1130C005DC06091B6007091B7004617570708F0B1
S1130C1055C06091B6007091B7006417750790F4E1
S1130C203A80381A3092C400EA2FE61BE093C500DC
S1130C30F0E0BCE33B9EE00DF11D1124F093C100F4
S1130C40E093C00082179307A0F44617570788F46F
S1130C50BA81B81BB093C4006A1B6093C500ECE36F
S1130C60BE9FC0011124861B91099093C1008093FB
S1130C70C0008091C0009091C100E091B400F09157
S1130C80B5008E179F0708F59C0140E050E0215005
S1130C90310941095109A1E0BFEFE3D39F0140E0CD
S1130CA050E02150310941095109B3D38FEF820F2C
S1130CB059DBB092AD00A092AC000DC08FEF52DBB7
S1130CC0D092AD00C092AC0006C080E04BDB9092A5
S1130CD0AD008092AC002091AA003091AB008091CD
S1130CE0AC009091AD002817390709F0DADA809149
S1130CF0AC009091AD009093AB008093AA0089B7AB
S1130D00816089BF07C089B78E7F89BF959A969AFB
S1130D10979AC09A60ED80E03AD329D381ED30D31D
S1130D204AD38093D70047D38093D10044D3809390
S1130D30D50041D38093D3003ED38093CF003BD3DF
S1130D408093D8003FD38093D00017D38091D700ED
S1130D50F9D28093CE008091D100F4D28093CD005B
S1130D608091D500EFD28093CC008091D300EAD259
S1130D708093CB008091D000E5D28093C80080910D
S1130D80D800E0D28093C9008091CF00DBD2809359
S1130D90CA00B79B0AC089B7816006C09598969827
S1130DA09798C09889B78E7F89BF8091B3008823B4
S1130DB041F08091B2008150823018F46ADB1092C5
S1130DC0B2008091B0009091B100892B61F08091C4
S1130DD0AE009091AF000197029728F4BDDC109209
S1130DE0AF001092AE001ADADCD98093D4008823C5
S1130DF009F40DC1D6D98093D2009091D4009230D9
S1130E0039F118F4913059F002C12091B0003091B9
S1130E10B1009330B1F1943009F47DC0F8C0813051
S1130E2009F0F5C089830DDB9091B3008981992382
S1130E3019F08093B200EBC08091B0009091B100A2
S1130E40892B09F4E4C0F092AF00E092AE00DFC059
S1130E50813009F0DCC09983F4DA8091B300998180
S1130E60882319F09093B200D2C08091B000909181
S1130E70B100892B09F4CBC0B092AF00A092AE00B0
S1130E80C6C0232B09F0C3C09091B300843011F481
S1130E90992331F0992309F4BAC0813009F0B7C01D
S1130EA0D0DA8091B300811106C081E08093B30051
S1130EB0F8D9EAD9ACC0813011F482E00AC082309A
S1130EC029F483E08093B300ECD9A1C0833021F4EA
S1130ED084E08093B3009BC0843021F4F5E0F09368
S1130EE0B30095C0853029F4DCD9CED92092B30063
S1130EF08EC0863009F08BC03AD280ED41D280E0BA
S1130F003FD281E028D23CD238D2CBD91092B30060
S1130F101092B2007CC09091B300911178C08430DB
S1130F2019F42115310531F0232B09F470C08130F7
S1130F3009F06DC086DA8091B0009091B1000097FD
S1130F4031F4AFD97092B1006092B00060C08730C4
S1130F50910561F46091BE007091BF008AE090E059
S1130F60B7D25092B1004092B00051C08830910580
S1130F7059F46091BC007091BD0088E090E0A8D263
S1130F8090D989E090E01AC08930910559F46091B4
S1130F90BA007091BB0086E090E09AD282D9EAE070
S1130FA0F0E01EC08A30910571F46091B800709130
S1130FB0B90084E090E08CD28BE090E09093B10093
S1130FC08093B00024C08B30910579F46091B60011
S1130FD07091B70082E090E07BD263D9ECE0F0E05E
S1130FE0F093B100E093B00012C00C9781F46091CB
S1130FF0B4007091B50080E090E06AD252D91092AA
S1131000B1001092B0001092AF001092AE00809127
S1131010B0009091B100892B11F58091B30081113A
S11310201EC06091CD008091CC0093DC63B36870E6
S113103082E024D98091AC009091AD00813091057B
S113104031F460E082E114D965E082E107C00297DF
S113105031F460E083E10CD965E083E109D9809142
S1131060B0009091B100009709F4F5C08930910562
S113107009F473C030F48730910569F00897B9F129
S1131080EAC08B30910509F44AC008F48DC00C976E
S113109009F4BAC0E0C08091A100811113C080910D
S11310A0BE009091BF006AE070E09FD1862F61E09E
S11310B0DFD88091BE009091BF006AE070E095D1C6
S11310C062E005C061E08BE0D3D862E08BE0D0D869
S11310D08091BC009091BD006AE070E086D1862FBB
S11310E063E0C6D88091BC009091BD0088C0809117
S11310F0BE009091BF006AE070E077D1862F61E076
S1131100B7D88091BE009091BF006AE070E06DD1C5
S113111062E0AED88091A100811119C0D9CF80912D
S1131120B8009091B9006AE070E05FD1862F61E069
S11311309FD88091B8009091B9006AE070E055D1D1
S113114062E096D88091A100882309F44AC063E044
S11311508BE08ED864E08BE07DC08091A10081118A
S11311601AC08091BA009091BB00B8013ED1862F7D
S113117061E07ED88091BA009091BB00B80135D16E
S11311806AE070E032D1862F62E072D88091BA00B2
S11311909091BB0056C061E08BE06AD862E08BE0BE
S11311A067D863E08BE053C08091A100811113C024
S11311B08091B8009091B9006AE070E016D1862F52
S11311C061E056D88091B8009091B9006AE070E06F
S11311D00CD162E005C061E08BE04AD862E08BE0AC
S11311E047D88091B6009091B7006AE070E0FDD0D6
S11311F0862F63E03DD88091B6009091B7006AE0F5
S113120070E0F3D064E026C08091A1008111C3CFC7
S11312108091B4009091B500B801E7D0862F61E0C9
S113122027D88091B4009091B500B801DED06AE06F
S113123070E0DBD0862F62E01BD88091B4009091DF
S1131240B500B801D2D06AE070E0CFD063E010D826
S113125064E08DE00DD88091B300882309F432CC8A
S1131260833009F465C028F48130F1F08230D1F183
S113127029CC853009F45CC008F45AC0863009F0E2
S113128021CC60E08AE0F4D761E08AE0F1D762E043
S113129080E0EED763E08091CB00EAD764E08AE097
S11312A0E7D765E08AE04CC08091A10081110FC0AE
S11312B08091CC003AE0332E632D8BD061E0D8D7F7
S11312C08091CC00632D85D0892F62E005C061E058
S11312D08BE0CED762E08BE0CBD78091CD002AE0C3
S11312E0322E15C08091CC009AE0392E632D71D036
S11312F061E0BED78091CC00632D6BD0892F62E072
S1131300B7D78091A10081110DC08091CD00632DCC
S113131060D063E0ADD78091CD00632D5AD0892F82
S113132064E00EC063E08BE0A3D764E08BE008C008
S11313304091C8006091C9008091CA002BDBC2CBE8
S113134097D7C0CB982F92959F708F702AE0929F69
S1131350800D112408956AE03CD0292F30E1839F49
S1131360C0011124822B089580E280B9089584EA93
S113137086BF06B607FEFDCF089584E986BF0895AB
S113138083B984E886BF06B607FEFDCF08951F9390
S1131390CF93DF931F92CDB7DEB7182F6983E7DFB2
S11313A08981EEDF812FECDF84E986BF0F90DF9126
S11313B0CF911F91089584EC86BF06B607FEFDCF3A
S11313C083B1089584E886BF06B607FEFDCF83B1D6
S11313D00895991B79E004C0991F961708F0961B8D
S11313E0881F7A95C9F780950895AA1BBB1B51E104
S11313F007C0AA1FBB1FA617B70710F0A61BB70B81
S1131400881F991F5A95A9F780959095BC01CD0125
S11314100895052E97FB16F400940FD057FD05D0C0
S113142024D007FC02D046F408C05095409530956E
S113143021953F4F4F4F5F4F08959095809570953C
S113144061957F4F8F4F9F4F089531D0A59F900D89
S1131450B49F900DA49F800D911D11240895B7FF92
S1131460F4CFF3DF821B930B0895A1E21A2EAA1B7B
S1131470BB1BFD010DC0AA1FBB1FEE1FFF1FA21740
S1131480B307E407F50720F0A21BB30BE40BF50B3D
S1131490661F771F881F991F1A9469F760957095C6
S11314A0809590959B01AC01BD01CF010895A29F49
S11314B0B001B39FC001A39F01D0B29F700D811DE5
S11314C01124911D0895A8E1B0E042E050E005C068
S11314D012D0272F11C0DC01CB01FC01E199FECF12
S11314E006C0FFBBEEBBE09A31960DB20D9241509F
S11314F05040B8F70895262FE199FECF9FBB8EBBCD
S11315002DBB0FB6F894E29AE19A0FBE01960895A6
S1071510F894FFCF79
S11315143F065B4F666D7D077F6F40008054713ECC
S10F1524383F635C0B0B0B0B0B0BFF0040
S9030000FC
