S01600004D79436C6F636B313330374C45442E73726563BC
S113000012C02CC02BC0B7C129C028C07CC126C0D7
S113001025C0D2C123C022C021C020C01FC01EC021
S11300201DC01CC01BC011241FBECFE5D4E0DEBF21
S1130030CDBF10E0A0E6B0E0E6E2F2E102C0059038
S11300400D92AC37B107D9F720E0ACE7B0E001C0BE
S11300501D92A53EB207E1F7A4D3E3C8D1CF209106
S11300607C00283078F490917E00E92FF0E0E1588C
S1130070FF4F80832F5F20937C0081E0890F87707E
S113008080937E000895EF92FF920F931F93CF9376
S1130090DF9300D0CDB7DEB72FEF260F30E0A901F4
S11300A049575F4F7A01FA014081F901E457FF4F44
S11300B0908190938B008901000F111FD801AE56D7
S11300C0BF4F2D913C913093910020939000882351
S11300D0E1F0253F51E03507C8F52F5F3F4F3093DE
S11300E09100209390002B30310580F140FD03C036
S11300F0416091E001C090E0253F314041F541FD70
S113010026C04B7F426092E022C040FF0AC041FDFE
S113011008C042FF03C04B7F95E004C010928B00DF
S1130120446090E042FF08C080918B00853620F047
S113013010928B004B7F93E040FF02C041FD94E09E
S113014010929100109290004C7F01C090E042FF09
S113015007C080918B00853618F48F5F80938B00E5
S113016080918B008083992341F0862F4A83998361
S113017076DF9981892F73DF4A81F801EE56FF4FAC
S1130180809190009091910091838083F701408346
S11301900F900F90DF91CF911F910F91FF90EF90EF
S11301A0089520917C00222379F090917D00E92F1D
S11301B0F0E0E158FF4F8081215020937C009F5F45
S11301C0977090937D00089580E00895CF93DF9316
S11301D0E2E9F0E0C7E8D0E0ACE8B0E011921192B7
S11301E019921D9280E0EA39F807C1F7EFE7F0E0D1
S11301F0119280E0E738F807D9F710927E00109248
S11302007D0010927C00899891988A9892988B9896
S1130210939888989098DF91CF910895CF9380B365
S1130220C1E08695817061E08C272DDF80B382FB6D
S1130230882780F962E08C2726DF80B383FB882738
S113024080F963E08C271FDF80B3817064E08C2722
S1130250CF9119CF8EB588608EBD89B7806189BF73
S113026085E08BBD8CED8ABD8EB582608EBD089510
S1130270E62FF0E0EC58FF4F80830895E82FF0E07C
S1130280E556FF4F6083089510929B0010929C00E6
S113029010929D0010929E0010929F001092A00058
S11302A008958BE0809374008093750080937600AA
S11302B08093770080937800809379000895482F85
S11302C050E021E030E0082E01C0220F0A94EAF742
S11302D020952FB9779BFECFFA01EC58FF4FE081B0
S11302E0F0E0E05AFF4F8081FA01E556FF4F90811C
S11302F0992319F090916C00892B8FB9779BFECFCD
S1130300C29AC29808951F920F920FB60F921124A9
S11303102F933F934F935F936F937F938F939F9309
S1130320AF93BF93EF93FF9380919A00C8DF8091BE
S11303309A008F5F863018F480939A0002C010925E
S11303409A00FF91EF91BF91AF919F918F917F910F
S11303506F915F914F913F912F910F900FBE0F902E
S11303601F9018958093E2008093A9008093A800C1
S11303708093A70008951F920F920FB60F92112435
S11303808F939F9380917A00815080937A0080911B
S11303907A0081110AC09091A10081E0911180E05E
S11303A08093A1008FEF80937A009F918F910F909B
S11303B00FBE0F901F9018951F920F920FB60F92B9
S11303C011248F939F938091A2008F5F8093A2004A
S11303D081111EC08091E2008093A6009091A90033
S11303E09093A5009091A8009093A4009091A700E9
S11303F09093A3008111959A8091A9008111969AF6
S11304008091A8008111979A8091A7008111C09AC8
S11304109091A6008091A200981301C095989091A4
S1130420A5008091A200981301C096989091A40011
S11304308091A200981301C097989091A300809195
S1130440A200981301C0C0989F918F910F900FBE86
S11304500F901F901895C69A2FEF80E792E02150D5
S113046080409040E1F700C00000C698089587B32B
S1130470886287BB88B3877D88BBBA9AC29880E5B7
S11304808DB908958D9A8E9A8F9AB89A9598969860
S11304909798C098BF9883B7816083BF12BE89B70D
S11304A0816089BF0895D9D580EDE0D58091BF00E2
S11304B0813019F0823061F155C082E0D7D5809146
S11304C0BE00813089F48091D800873138F48F5F81
S11304D0B8D5CCD58091D8008F5F12C080E0B1D55B
S11304E0C5D51092D8003EC08230E1F58091D80085
S11304F0882349F08150A5D5B9D58091D800815081
S11305008093D8002FC087E19CD5B0D587E1F8CF80
S113051081E0ACD58091BE00813089F48091D9000E
S11305208B3338F48F5F8DD5A1D58091D9008F5F3F
S113053017C080E086D59AD51092D90013C08230B6
S113054089F48091D900882339F081507AD58ED5E9
S11305508091D900815004C08BE373D587D58BE398
S11305608093D90080C58091BC009091BD008930F2
S1130570910509F45EC030F48730910569F008975D
S113058089F108958B30910509F49FC008F477C070
S11305900C9709F4C0C008958091BA009091BB00F3
S11305A08130910581F48091CA009091CB008A300A
S11305B0910510F4019602C083E090E09093CB0083
S11305C08093CA000895029709F0C9C08091CA00B7
S11305D09091CB008530910510F00197EFCF8AE020
S11305E090E0ECCF8091BA009091BB0081309105EE
S11305F071F48091C8009091C9008B33910510F477
S113060001960FC01092C9001092C8000895029775
S113061009F0A5C08091C8009091C900009731F0FD
S113062001979093C9008093C80008958BE390E0EC
S1130630F8CF8091BA009091BB008130910561F4AC
S11306408091C6009091C7008837910510F40F96E9
S113065011C08FE090E00EC0029709F080C0809135
S1130660C6009091C7008031910510F00F9702C029
S113067088E790E09093C7008093C6000895809126
S1130680BA009091BB008130910561F48091C4005F
S11306909091C5008531910510F4019611C08DE04B
S11306A090E00EC0029709F05AC08091C400909166
S11306B0C5008E30910510F0019702C085E190E0ED
S11306C09093C5008093C40008958091BA009091DE
S11306D0BB008130910571F48091C2009091C300F8
S11306E08B33910510F4019611C01092C30010923F
S11306F0C2000895029799F58091C2009091C300B9
S1130700009711F0019702C08BE390E09093C3002F
S11307108093C20008958091BA009091BB0081300B
S1130720910561F48091C0009091C10088379105D2
S113073010F40F9610C08FE090E00DC0029779F48A
S11307408091C0009091C1008031910510F00F9705
S113075002C088E790E09093C1008093C0000895A0
S11307600F931F93CF93DF931F92CDB7DEB7062F5E
S11307701AE0612FA4D461E099837ADD62E0998163
S1130780892F76DD802F612F9AD463E0998370DD01
S113079064E09981892F0F90DF91CF911F910F9180
S11307A067CDCF93DF931F92CDB7DEB753D46ADE04
S11307B00DDDBE9A5CDE4EDD959A969A979AC09AA4
S11307C07894A3984AD480ED51D487E04FD480E143
S11307D04DD449D48FEF83BD85B5886085BD89B775
S11307E0806889BF85B5836085BD8AE090E0F4D4D4
S11307F09093CB008093CA0088E090E0EDD490936E
S1130800C9008093C80086E090E0E6D49093C700C6
S11308108093C60084E090E0DFD49093C500809379
S1130820C40082E090E0D8D49093C3008093C200C7
S113083080E090E0D1D49093C1008093C0004CE359
S1130840842E912C52E0252E312CAA24A394B12C71
S113085004E610E08091BC009091BD00892B09F062
S113086052C18091BF0081114EC1B79B01C120913B
S1130870D80030E0ACE3B0E071D49B01AC018091CE
S1130880D900280F311D411D511D74D46B017C0109
S11308908091DA00C80ED11CE11CF11CC092B20098
S11308A0D092B300E092B400F092B5002091CA0057
S11308B03091CB004091C8005091C900A0E1BEE046
S11308C04DD42B013C019A01ACE3B0E047D4460E71
S11308D0571E681E791E4092AA005092AB00609287
S11308E0AC007092AD004C145D046E047F0408F0FB
S11308F09FC0D701C60184199509A609B7092C011F
S11309003D018093D0009093D100A093D200B09386
S1130910D300E091C600F091C700B401F0D36E1784
S11309207F07F0F4A30192012150310941095109D3
S1130930A5EFB0E01FD4ACE3AE9F9001AF9F300DA4
S1130940112440E050E02150310941095109EAD312
S11309508AE0820F07DDB092B900A092B80070C09F
S11309602091C4003091C5004091C2005091C30051
S1130970A0E1BEE0F3D32B013C019A01ACE3B0E06B
S1130980EDD3460E571E681E791E4092AE0050925B
S1130990AF006092B0007092B1004C145D046E041C
S11309A07F04E8F5C418D508E608F708C092CC001F
S11309B0D092CD00E092CE00F092CF00E091C00042
S11309C0F091C100C601B4019AD36E177F07F0F409
S11309D0A70196012150310941095109ABE0BFEF4C
S11309E0D5D3BCE3BE9F9001BF9F300D112440E0DE
S11309F050E0215031094109510994D38FEF820FFE
S1130A00B1DC3092B9002092B8001AC080E0AADCB0
S1130A10E4E0F0E0F093B900E093B80011C08FEF88
S1130A20A1DC83E090E09093B9008093B80008C003
S1130A3080E098DCA4E0B0E0B093B900A093B800E3
S1130A402091B6003091B7008091B8009091B90020
S1130A502817390709F025DC8091B8009091B90076
S1130A609093B7008093B60089B7816089BF07C0AF
S1130A7089B78E7F89BF959A969A979AC09A60EDA6
S1130A8080E0FBD2EAD281EDF1D20BD38093E30074
S1130A9008D38093DD0005D38093E10002D38093D3
S1130AA0DF00FFD28093DB00FCD28093E40000D30C
S1130AB08093DC00D8D28091E300BAD28093DA002C
S1130AC08091DD00B5D28093D9008091E100B0D24D
S1130AD08093D8008091DF00ABD28093D7008091BF
S1130AE0DC00A6D28093D4008091E400A1D280934C
S1130AF0D5008091DB009CD28093D600B79B0AC0BE
S1130B0089B7816006C0959896989798C09889B7D8
S1130B108E7F89BF8091BF00882341F08091BE0001
S1130B208150823018F4BFDC1092BE008091BC006A
S1130B309091BD00892B61F08091BA009091BB0027
S1130B400197029728F40FDD1092BB001092BA00AF
S1130B5065DB27DB8093E000882309F4F6C021DB02
S1130B608093DE009091E000923039F118F49130D6
S1130B7059F0EBC02091BC003091BD009330B1F12D
S1130B80943009F465C0E1C0813009F0DEC0898386
S1130B9062DC9091BF008981992319F08093BE0093
S1130BA0D4C08091BC009091BD00892B09F4CDC0C4
S1130BB0B092BB00A092BA00C8C0813009F0C5C091
S1130BC0998349DC8091BF009981882319F090931F
S1130BD0BE00BBC08091BC009091BD00892B09F47C
S1130BE0B4C03092BB002092BA00AFC0232B09F0EE
S1130BF0ACC09091BF00843011F4992331F0992353
S1130C0009F4A3C0813009F0A0C025DC8091BF00A5
S1130C10811106C081E08093BF0043DB35DB95C0C2
S1130C20813021F482E08093BF008FC0823009F0CC
S1130C308CC013D280ED1AD280E018D281E001D2A8
S1130C4015D211D22EDB1092BF001092BE007DC0CF
S1130C509091BF00911179C0843019F421153105A8
S1130C6031F0232B09F471C0813009F06EC0F3DB3D
S1130C708091BC009091BD00009729F412DB04DB45
S1130C80E7E0F0E028C08730910551F46091CA0094
S1130C907091CB008AE090E0A4D288E090E02CC070
S1130CA08830910559F46091C8007091C90088E0BA
S1130CB090E097D2F6DAA9E0B0E030C0893091052F
S1130CC079F46091C6007091C70086E090E089D203
S1130CD0E8DAEAE0F0E0F093BD00E093BC0035C050
S1130CE08A30910571F46091C4007091C50084E06C
S1130CF090E077D28BE090E09093BD008093BC00AD
S1130D0024C08B30910579F46091C2007091C300C6
S1130D1082E090E066D2C5DAACE0B0E0B093BD000A
S1130D20A093BC0012C00C9781F46091C000709134
S1130D30C10080E090E055D2B4DA1092BD00109268
S1130D40BC001092BB001092BA008091BC0090913C
S1130D50BD00892B11F58091BF0081111EC06091E7
S1130D60D9008091D800FCDC63B3687082E086DA35
S1130D708091B8009091B9008130910531F460E020
S1130D8082E176DA65E082E107C0029731F460E03F
S1130D9083E16EDA65E083E16BDA8091BC009091C7
S1130DA0BD00009709F4F5C08930910509F473C0BA
S1130DB030F48730910569F00897B9F1EAC08B30B7
S1130DC0910509F44AC008F48DC00C9709F4BAC01F
S1130DD0E0C08091A100811113C08091CA0090915C
S1130DE0CB006AE070E077D1862F61E041DA809130
S1130DF0CA009091CB006AE070E06DD162E005C05A
S1130E0061E08BE035DA62E08BE032DA8091C80091
S1130E109091C9006AE070E05ED1862F63E028DA21
S1130E208091C8009091C90088C08091CA009091B7
S1130E30CB006AE070E04FD1862F61E019DA80912F
S1130E40CA009091CB006AE070E045D162E010DA0C
S1130E508091A100811119C0D9CF8091C4009091D3
S1130E60C5006AE070E037D1862F61E001DA809135
S1130E70C4009091C5006AE070E02DD162E0F8D919
S1130E808091A100882309F44AC063E08BE0F0D983
S1130E9064E08BE07DC08091A10081111AC0809133
S1130EA0C6009091C700B80116D1862F61E0E0D941
S1130EB08091C6009091C700B8010DD16AE070E03E
S1130EC00AD1862F62E0D4D98091C6009091C700E0
S1130ED056C061E08BE0CCD962E08BE0C9D963E015
S1130EE08BE053C08091A100811113C08091C40094
S1130EF09091C5006AE070E0EED0862F61E0B8D929
S1130F008091C4009091C5006AE070E0E4D062E092
S1130F1005C061E08BE0ACD962E08BE0A9D9809197
S1130F20C2009091C3006AE070E0D5D0862F63E0E0
S1130F309FD98091C2009091C3006AE070E0CBD049
S1130F4064E026C08091A1008111C3CF8091C000CC
S1130F509091C100B801BFD0862F61E089D98091FA
S1130F60C0009091C100B801B6D06AE070E0B3D07F
S1130F70862F62E07DD98091C0009091C100B801B4
S1130F80AAD06AE070E0A7D063E072D964E08DE093
S1130F906FD98091BF00882309F45CCC813019F0AB
S1130FA08230F9F057CC8091A10081110FC080915B
S1130FB0D8003AE0F32E6F2D82D061E059D98091A8
S1130FC0D8006F2D7CD0892F62E005C061E08BE0F2
S1130FD04FD962E08BE04CD98091D9002AE0F22EFF
S1130FE015C08091D8009AE0F92E6F2D68D061E089
S1130FF03FD98091D8006F2D62D0892F62E038D913
S11310008091A10081110DC08091D9006F2D57D01E
S113101063E02ED98091D9006F2D51D0892F64E0DF
S113102005C063E08BE024D964E08BE021D912CCC5
S1131030982F92959F708F702AE0929F800D1124B3
S113104008956AE03CD0292F30E1839FC001112428
S1131050822B089580E280B9089584EA86BF06B69B
S113106007FEFDCF089584E986BF089583B984E817
S113107086BF06B607FEFDCF08951F93CF93DF9377
S11310801F92CDB7DEB7182F6983E7DF8981EEDFC2
S1131090812FECDF84E986BF0F90DF91CF911F9100
S11310A0089584EC86BF06B607FEFDCF83B108958C
S11310B084E886BF06B607FEFDCF83B10895991B69
S11310C079E004C0991F961708F0961B881F7A953B
S11310D0C9F780950895AA1BBB1B51E107C0AA1F3D
S11310E0BB1FA617B70710F0A61BB70B881F991FC5
S11310F05A95A9F780959095BC01CD01089597FB69
S1131100072E16F4009406D077FD08D0E4DF07FC20
S113111005D03EF4909581959F4F08957095619503
S11311207F4F0895052E97FB16F400940FD057FDBA
S113113005D030D007FC02D046F408C05095409545
S1131140309521953F4F4F4F5F4F0895909580956F
S1131150709561957F4F8F4F9F4F0895A29FB00167
S1131160B39FC001A39F01D0B29F700D811D1124B4
S1131170911D0895F3DFA59F900DB49F900DA49F3A
S1131180800D911D11240895B7FFF4CFF3DF821B66
S1131190930B0895A1E21A2EAA1BBB1BFD010DC0DF
S11311A0AA1FBB1FEE1FFF1FA217B307E407F50713
S11311B020F0A21BB30BE40BF50B661F771F881FEF
S11311C0991F1A9469F760957095809590959B0185
S11311D0AC01BD01CF010895A8E1B0E042E050E0C8
S11311E005C012D0272F11C0DC01CB01FC01E1990D
S11311F0FECF06C0FFBBEEBBE09A31960DB20D9256
S113120041505040B8F70895262FE199FECF9FBB77
S11312108EBB2DBB0FB6F894E29AE19A0FBE0196ED
S10912200895F894FFCFCD
S1131226F381D6C7A56777C1F7E70400081574B339
S10F123632F3E4170B0B0B0B0B0BFF0047
S9030000FC
