:1000000012C02CC02BC0B7C129C028C07CC126C0DB
:1000100025C0DBC123C022C021C020C01FC01EC01C
:100020001DC01CC01BC011241FBECFE5D4E0DEBF25
:10003000CDBF10E0A0E6B0E0E2E2F3E102C005903F
:100040000D92AC37B107D9F720E0ACE7B0E001C0C2
:100050001D92A83EB207E1F7CAD361C9D1CF209162
:100060007C00283078F490917E00E92FF0E0E15890
:10007000FF4F80832F5F20937C0081E0890F877082
:1000800080937E000895EF92FF920F931F93CF937A
:10009000DF9300D0CDB7DEB72FEF260F30E0A901F8
:1000A00049575F4F7A01FA014081F901E457FF4F48
:1000B000908190938B008901000F111FD801AE56DB
:1000C000BF4F2D913C913093910020939000882355
:1000D000E1F0253F51E03507C8F52F5F3F4F3093E2
:1000E0009100209390002B30310580F140FD03C03A
:1000F000416091E001C090E0253F314041F541FD74
:1001000026C04B7F426092E022C040FF0AC041FD02
:1001100008C042FF03C04B7F95E004C010928B00E3
:10012000446090E042FF08C080918B00853620F04B
:1001300010928B004B7F93E040FF02C041FD94E0A2
:1001400010929100109290004C7F01C090E042FF0D
:1001500007C080918B00853618F48F5F80938B00E9
:1001600080918B008083992341F0862F4A83998365
:1001700076DF9981892F73DF4A81F801EE56FF4FB0
:10018000809190009091910091838083F70140834A
:100190000F900F90DF91CF911F910F91FF90EF90F3
:1001A000089520917C00222379F090917D00E92F21
:1001B000F0E0E158FF4F8081215020937C009F5F49
:1001C000977090937D00089580E00895CF93DF931A
:1001D000E2E9F0E0C7E8D0E0ACE8B0E011921192BB
:1001E00019921D9280E0EA39F807C1F7EFE7F0E0D5
:1001F000119280E0E738F807D9F710927E0010924C
:100200007D0010927C00899891988A9892988B989A
:10021000939888989098DF91CF910895CF9380B369
:10022000C1E08695817061E08C272DDF80B382FB71
:10023000882780F962E08C2726DF80B383FB88273C
:1002400080F963E08C271FDF80B3817064E08C2726
:10025000CF9119CF8EB588608EBD89B7806189BF77
:1002600085E08BBD8CED8ABD8EB582608EBD089514
:10027000E62FF0E0EC58FF4F80830895E82FF0E080
:10028000E556FF4F6083089510929B0010929C00EA
:1002900010929D0010929E0010929F001092A0005C
:1002A00008958BE0809374008093750080937600AE
:1002B0008093770080937800809379000895482F89
:1002C00050E021E030E0082E01C0220F0A94EAF746
:1002D00020952FB9779BFECFFA01EC58FF4FE081B4
:1002E000F0E0E05AFF4F8081FA01E556FF4F908120
:1002F000992319F090916C00892B8FB9779BFECFD1
:10030000C29AC29808951F920F920FB60F921124AD
:100310002F933F934F935F936F937F938F939F930D
:10032000AF93BF93EF93FF9380919A00C8DF8091C2
:100330009A008F5F863018F480939A0002C0109262
:100340009A00FF91EF91BF91AF919F918F917F9113
:100350006F915F914F913F912F910F900FBE0F9032
:100360001F9018958093E5008093AC008093AB00BC
:100370008093AA0008951F920F920FB60F92112436
:100380008F939F9380917A00815080937A0080911F
:100390007A00811113C09091A40081E0911180E056
:1003A0008093A4008FEF80937A008091A10088232E
:1003B00029F08091A10081508093A1009F918F919D
:1003C0000F900FBE0F901F9018951F920F920FB6AF
:1003D0000F9211248F939F938091A5008F5F80933C
:1003E000A50081111EC08091E5008093A900909125
:1003F000AC009093A8009091AB009093A7009091CF
:10040000AA009093A6008111959A8091AC00811169
:10041000969A8091AB008111979A8091AA008111E0
:10042000C09A9091A9008091A500981301C0959859
:100430009091A8008091A500981301C09698909182
:10044000A7008091A500981301C097989091A600ED
:100450008091A500981301C0C0989F918F910F9033
:100460000FBE0F901F901895806487B98AE18A9516
:10047000F1F700C045E060E070E0CB01369A349BB4
:10048000FECF349A24B135B1620F731F811D911DC7
:100490004150A1F725E030E040E050E0C7D6C90167
:1004A0000895C69A2FEF80E792E021508040904057
:1004B000E1F700C00000C698089587B3886287BB43
:1004C00088B3877D88BBBA9AC29880E58DB90895B4
:1004D0008D9A8E9A8F9AB89A959896989798C09870
:1004E000BF9883B7816083BF12BE89B7816089BF1F
:1004F0000895DCD580EDF6D58091C200813019F0E9
:10050000823061F155C082E0EDD58091C10081302B
:1005100089F48091DB00873138F48F5FBBD5E2D559
:100520008091DB008F5F12C080E0B4D5DBD51092E4
:10053000DB003EC08230E1F58091DB00882349F08A
:100540008150A8D5CFD58091DB0081508093DB000E
:100550002FC087E19FD5C6D587E1F8CF81E0C2D50E
:100560008091C100813089F48091DC008B3338F4B4
:100570008F5F90D5B7D58091DC008F5F17C080E08A
:1005800089D5B0D51092DC0013C0823089F48091F7
:10059000DC00882339F081507DD5A4D58091DC0022
:1005A000815004C08BE376D59DD58BE38093DC002E
:1005B00096C58091BF009091C0008930910509F4E3
:1005C0005EC030F48730910569F0089789F108958D
:1005D0008B30910509F49FC008F477C00C9709F49B
:1005E000C0C008958091BD009091BE0081309105FA
:1005F00081F48091CD009091CE008A30910510F465
:10060000019602C083E090E09093CE008093CD00ED
:100610000895029709F0C9C08091CD009091CE0055
:100620008530910510F00197EFCF8AE090E0ECCF94
:100630008091BD009091BE008130910571F4809150
:10064000CB009091CC008B33910510F401960FC034
:100650001092CC001092CB000895029709F0A5C02B
:100660008091CB009091CC00009731F0019790934E
:10067000CC008093CB0008958BE390E0F8CF80917D
:10068000BD009091BE008130910561F48091C90058
:100690009091CA008837910510F40F9611C08FE031
:1006A00090E00EC0029709F080C08091C90090913F
:1006B000CA008031910510F00F9702C088E790E0E2
:1006C0009093CA008093C90008958091BD009091D5
:1006D000BE008130910561F48091C7009091C800FF
:1006E0008531910510F4019611C08DE090E00EC0A7
:1006F000029709F05AC08091C7009091C8008E30CF
:10070000910510F0019702C085E190E09093C80038
:100710008093C70008958091BD009091BE00813004
:10072000910571F48091C5009091C6008B339105BD
:1007300010F4019611C01092C6001092C5000895E1
:10074000029799F58091C5009091C600009711F02D
:10075000019702C08BE390E09093C6008093C500A0
:1007600008958091BD009091BE008130910561F4A3
:100770008091C3009091C4008837910510F40F96C2
:1007800010C08FE090E00DC0029779F48091C30013
:100790009091C4008031910510F00F9702C088E756
:1007A00090E09093C4008093C30008950F931F932B
:1007B000CF93DF931F92CDB7DEB7062F1AE0612FDC
:1007C00002D561E0998354DD62E09981892F50DD83
:1007D000802F612FF8D463E099834ADD64E099812A
:1007E000892F0F90DF91CF911F910F9141CDCF9322
:1007F000DF931F92CDB7DEB756D46ADEE7DCBE9A30
:1008000085E886B95ADE26DD959A969A979AC09A17
:100810008FEF83BD85B5886085BD89B7806889BF46
:1008200085B5836085BD7894A39840D480ED5AD473
:1008300087E058D480E156D452D48AE090E04AD57B
:100840009093CE008093CD0088E090E043D59093C4
:10085000CC008093CB0086E090E03CD59093CA001A
:100860008093C90084E090E035D59093C8008093D0
:10087000C70082E090E02ED59093C6008093C5001B
:1008800080E090E027D59093C4008093C300222499
:100890002394312C04E610E080E0E6DDFC01F695BF
:1008A000E795F695E795F093A300E093A200809179
:1008B000BF009091C000892B09F051C18091C20006
:1008C00081114DC1B79B05C12091DB0030E0ACE345
:1008D000B0E0EAD49B01AC018091DC00280F311D0F
:1008E000411D511DEDD46B017C018091DD00C80ECE
:1008F000D11CE11CF11CC092B500D092B600E09270
:10090000B700F092B8002091CD003091CE00409118
:10091000CB005091CC00A0E1BEE0C6D44B015C01FD
:100920009A01ACE3B0E0C0D4860E971EA81EB91E93
:100930008092AD009092AE00A092AF00B092B00055
:100940008C149D04AE04BF0408F0A3C02601370137
:10095000481859086A087B084092D3005092D40086
:100960006092D5007092D600A090C900B090CA00E5
:10097000C2016CE370E047D46A157B0518F5A3014A
:1009800092012150310941095109BF0180E090E0F5
:100990006A5071098109910907D44CE34A9D90017D
:1009A0004B9D300D112440E050E0215031094109A8
:1009B00051095ED48AE0820FD5DC3092BC002092CF
:1009C000BB006FC02091C7003091C8004091C500A6
:1009D0005091C600A0E1BEE067D44B015C019A01D2
:1009E000ACE3B0E061D4860E971EA81EB91E8092BB
:1009F000B1009092B200A092B300B092B4008C14F7
:100A00009D04AE04BF04E0F5C818D908EA08FB0845
:100A1000C092CF00D092D000E092D100F092D200EC
:100A2000A090C300B090C400C6016CE370E0EBD3AB
:100A30006A157B0570F52F01612C712CA7019601B9
:100A400021503109410951096AE070E080E090E0ED
:100A50006419750986099709A7D34CE34A9D90014B
:100A60004B9D300D112440E050E0215031094109E7
:100A70005109FED3822F840D75DC82E090E004C022
:100A80008E2F70DC83E090E09093BC008093BB00DD
:100A900008C080E067DCE4E0F0E0F093BC00E093A5
:100AA000BB002091B9003091BA008091BB009091B9
:100AB000BC002817390709F0F4DB8091BB00909146
:100AC000BC009093BA008093B90089B7816089BF58
:100AD00002C08E2F47DC60ED80E01ED3E7D281EDAF
:100AE00001D32ED38093E6002BD38093E00028D34C
:100AF0008093E40025D38093E20022D38093DE002C
:100B00001FD38093E70036D38093DF00E8D2809133
:100B1000E600B7D28093DD008091E000B2D28093EE
:100B2000DC008091E400ADD28093DB008091E20094
:100B3000A8D28093DA008091DF00A3D28093D700FF
:100B40008091E7009ED28093D8008091DE0099D2F8
:100B50008093D900B79B0AC089B7816006C0959879
:100B600096989798C09889B78E7F89BF8091C20068
:100B7000882341F08091C1008150823018F4B9DCA3
:100B80001092C1008091BF009091C000892B61F04C
:100B90008091BD009091BE000197029728F409DD75
:100BA0001092BE001092BD0039DBFBDA8093E300A7
:100BB000882309F4F3C0F5DA8093E1009091E30013
:100BC000923039F118F4913059F0E8C02091BF000B
:100BD0003091C0009330C1F1943009F466C0DEC09A
:100BE000813009F0DBC089835CDC9091C20089818F
:100BF000992319F08093C100D1C08091BF009091DA
:100C0000C000892B09F4CAC03092BE002092BD00FA
:100C1000C5C0813009F0C2C0998343DC8091C20015
:100C20009981882319F09093C100B8C08091BF00CA
:100C30009091C000892B09F4B1C082E090E09093BC
:100C4000BE008093BD00AAC0232B09F0A7C09091DD
:100C5000C200843011F4992331F0992309F49EC025
:100C6000813009F09BC01DDC8091C200811106C05B
:100C700081E08093C20015DB07DB90C0813021F456
:100C800082E08093C2008AC0823009F087C00ED211
:100C900080ED28D280E026D280E024D220D201DB71
:100CA0001092C2001092C10079C09091C2009111BF
:100CB00075C0843019F42115310531F0232B09F466
:100CC0006DC0813009F06AC0ECDB8091BF0090916B
:100CD000C000009729F4E5DAD7DAE7E0F0E035C0A4
:100CE0008730910551F46091CD007091CE008AE07B
:100CF00090E0F5D288E090E03AC08830910559F450
:100D00006091CB007091CC0088E090E0E8D2C9DA25
:100D1000E9E0F0E01AC08930910559F46091C9000A
:100D20007091CA0086E090E0DAD2BBDA8AE090E007
:100D30001EC08A30910571F46091C7007091C8009F
:100D400084E090E0CCD2EBE0F0E0F093C000E093E0
:100D5000BF0024C08B30910579F46091C50070917B
:100D6000C60082E090E0BBD29CDA8CE090E09093E9
:100D7000C0008093BF0012C00C9781F46091C30043
:100D80007091C40080E090E0AAD28BDA1092C0008B
:100D90001092BF001092BE001092BD008091BF0063
:100DA0009091C000892B11F58091C20081111EC065
:100DB0006091DC008091DB00F9DC63B3687082E055
:100DC0005DDA8091BB009091BC008130910531F4D7
:100DD00060E082E14DDA65E082E107C0029731F41C
:100DE00060E083E145DA65E083E142DA8091BF00AB
:100DF0009091C000009709F4F5C08930910509F47D
:100E000073C030F48730910569F00897B9F1EAC0F2
:100E10008B30910509F44AC008F48DC00C9709F491
:100E2000BAC0E0C08091A400811113C08091CD00B0
:100E30009091CE006AE070E0D2D1862F61E018DA9E
:100E40008091CD009091CE006AE070E0C8D162E060
:100E500005C061E08BE00CDA62E08BE009DA80919A
:100E6000CB009091CC006AE070E0B9D1862F63E0AE
:100E7000FFD98091CB009091CC0088C08091CD00AB
:100E80009091CE006AE070E0AAD1862F61E0F0D99F
:100E90008091CD009091CE006AE070E0A0D162E038
:100EA000E7D98091A400811119C0D9CF8091C700E2
:100EB0009091C8006AE070E092D1862F61E0D8D9A5
:100EC0008091C7009091C8006AE070E088D162E02C
:100ED000CFD98091A400882309F44AC063E08BE055
:100EE000C7D964E08BE07DC08091A40081111AC055
:100EF0008091C9009091CA00B80171D1862F61E03C
:100F0000B7D98091C9009091CA00B80168D16AE050
:100F100070E065D1862F62E0ABD98091C9009091D5
:100F2000CA0056C061E08BE0A3D962E08BE0A0D993
:100F300063E08BE053C08091A400811113C08091C5
:100F4000C7009091C8006AE070E049D1862F61E047
:100F50008FD98091C7009091C8006AE070E03FD1BE
:100F600062E005C061E08BE083D962E08BE080D96C
:100F70008091C5009091C6006AE070E030D1862F64
:100F800063E076D98091C5009091C6006AE070E078
:100F900026D164E026C08091A4008111C3CF809146
:100FA000C3009091C400B8011AD1862F61E060D9C6
:100FB0008091C3009091C400B80111D16AE070E043
:100FC0000ED1862F62E054D98091C3009091C40065
:100FD000B80105D16AE070E002D163E049D964E06C
:100FE0008DE046D98091C200882309F455CC813028
:100FF00019F08230F9F050CC8091A40081110FC01B
:101000008091DB003AE0F32E6F2DDDD061E030D926
:101010008091DB006F2DD7D0892F62E005C061E0A1
:101020008BE026D962E08BE023D98091DC002AE0B6
:10103000F22E15C08091DB009AE0F92E6F2DC3D0FF
:1010400061E016D98091DB006F2DBDD0892F62E061
:101050000FD98091A40081110DC08091DC006F2D0B
:10106000B2D063E005D98091DC006F2DACD0892F20
:1010700064E005C063E08BE0FBD864E08BE0F8D867
:101080000BCC982F92959F708F702AE0929F800DC5
:10109000112408956AE097D0292F30E1839FC00181
:1010A0001124822B089580E280B9089584EA86BFD6
:1010B0008AE08093A10006B607FC10C08091A100D1
:1010C0008111F9CF28E088E190E00FB6F894A89557
:1010D000809341000FBE20934100FFCF089584E923
:1010E00086BF089583B984E886BF8AE08093A10013
:1010F00006B607FC10C08091A1008111F9CF28E04D
:1011000088E190E00FB6F894A895809341000FBE57
:1011100020934100FFCF08951F93CF93DF931F9239
:10112000CDB7DEB7182F6983C1DF8981DBDF812F5F
:10113000D9DF84E986BF0F90DF91CF911F91089589
:1011400084EC86BF8AE08093A10006B607FC10C03D
:101150008091A1008111F9CF28E088E190E00FB6DD
:10116000F894A895809341000FBE20934100FFCFD3
:1011700083B1089584E886BF8AE08093A10006B613
:1011800007FC10C08091A1008111F9CF28E088E10F
:1011900090E00FB6F894A895809341000FBE20937D
:1011A0004100FFCF83B10895DB018F939F9388D0D7
:1011B000BF91AF91A29F800D911DA39F900DB29FF3
:1011C000900D11240895991B79E004C0991F96177A
:1011D00008F0961B881F7A95C9F780950895AA1B79
:1011E000BB1B51E107C0AA1FBB1FA617B70710F012
:1011F000A61BB70B881F991F5A95A9F78095909544
:10120000BC01CD01089597FB072E16F4009406D07B
:1012100077FD08D0E4DF07FC05D03EF4909581957A
:101220009F4F0895709561957F4F0895A1E21A2E02
:10123000AA1BBB1BFD010DC0AA1FBB1FEE1FFF1F7A
:10124000A217B307E407F50720F0A21BB30BE40BCA
:10125000F50B661F771F881F991F1A9469F7609511
:101260007095809590959B01AC01BD01CF010895CB
:10127000052E97FB16F400940FD057FD05D0D6DF4E
:1012800007FC02D046F408C0509540953095219552
:101290003F4F4F4F5F4F08959095809570956195A2
:1012A0007F4F8F4F9F4F0895A29FB001B39FC00102
:1012B000A39F01D0B29F700D811D1124911D08952F
:1012C000F3DFA59F900DB49F900DA49F800D911DFD
:1012D00011240895A8E1B0E042E050E005C012D02A
:1012E000272F11C0DC01CB01FC01E199FECF06C024
:1012F000FFBBEEBBE09A31960DB20D9241505040CB
:10130000B8F70895262FE199FECF9FBB8EBB2DBB6A
:101310000FB6F894E29AE19A0FBE01960895F894F8
:02132000FFCFFD
:10132200F381D6C7A56777C1F7E70400081574B340
:0C13320032F3E4170B0B0B0B0B0BFF004E
:00000001FF
