:1000000012C02CC02BC0B7C129C028C07CC126C0DB
:1000100025C0DBC123C022C021C020C01FC01EC01C
:100020001DC01CC01BC011241FBECFE5D4E0DEBF25
:10003000CDBF10E0A0E6B0E0ECEFF3E102C0059028
:100040000D92AC37B107D9F720E0ACE7B0E001C0C2
:100050001D92A83EB207E1F7C2D3CEC9D1CF2091FD
:100060007C00283078F490917E00E92FF0E0E15890
:10007000FF4F80832F5F20937C0081E0890F877082
:1000800080937E000895EF92FF920F931F93CF937A
:10009000DF9300D0CDB7DEB72FEF260F30E0A901F8
:1000A00049575F4F7A01FA014081F901E457FF4F48
:1000B000908190938B008901000F111FD801AE56DB
:1000C000BF4F2D913C913093910020939000882355
:1000D000E1F0253F51E03507C8F52F5F3F4F3093E2
:1000E0009100209390002B30310580F140FD03C03A
:1000F000416091E001C090E0253F314041F541FD74
:1001000026C04B7F426092E022C040FF0AC041FD02
:1001100008C042FF03C04B7F95E004C010928B00E3
:10012000446090E042FF08C080918B00853620F04B
:1001300010928B004B7F93E040FF02C041FD94E0A2
:1001400010929100109290004C7F01C090E042FF0D
:1001500007C080918B00853618F48F5F80938B00E9
:1001600080918B008083992341F0862F4A83998365
:1001700076DF9981892F73DF4A81F801EE56FF4FB0
:10018000809190009091910091838083F70140834A
:100190000F900F90DF91CF911F910F91FF90EF90F3
:1001A000089520917C00222379F090917D00E92F21
:1001B000F0E0E158FF4F8081215020937C009F5F49
:1001C000977090937D00089580E00895CF93DF931A
:1001D000E2E9F0E0C7E8D0E0ACE8B0E011921192BB
:1001E00019921D9280E0EA39F807C1F7EFE7F0E0D5
:1001F000119280E0E738F807D9F710927E0010924C
:100200007D0010927C00899891988A9892988B989A
:10021000939888989098DF91CF910895CF9380B369
:10022000C1E08695817061E08C272DDF80B382FB71
:10023000882780F962E08C2726DF80B383FB88273C
:1002400080F963E08C271FDF80B3817064E08C2726
:10025000CF9119CF8EB588608EBD89B7806189BF77
:1002600085E08BBD8CED8ABD8EB582608EBD089514
:10027000E62FF0E0EC58FF4F80830895E82FF0E080
:10028000E556FF4F6083089510929B0010929C00EA
:1002900010929D0010929E0010929F001092A0005C
:1002A00008958BE0809374008093750080937600AE
:1002B0008093770080937800809379000895482F89
:1002C00050E021E030E0082E01C0220F0A94EAF746
:1002D00020952FB9779BFECFFA01EC58FF4FE081B4
:1002E000F0E0E05AFF4F8081FA01E556FF4F908120
:1002F000992319F090916C00892B8FB9779BFECFD1
:10030000C29AC29808951F920F920FB60F921124AD
:100310002F933F934F935F936F937F938F939F930D
:10032000AF93BF93EF93FF9380919A00C8DF8091C2
:100330009A008F5F863018F480939A0002C0109262
:100340009A00FF91EF91BF91AF919F918F917F9113
:100350006F915F914F913F912F910F900FBE0F9032
:100360001F9018958093E5008093AC008093AB00BC
:100370008093AA0008951F920F920FB60F92112436
:100380008F939F9380917A00815080937A0080911F
:100390007A00811113C09091A40081E0911180E056
:1003A0008093A4008FEF80937A008091A10088232E
:1003B00029F08091A10081508093A1009F918F919D
:1003C0000F900FBE0F901F9018951F920F920FB6AF
:1003D0000F9211248F939F938091A5008F5F80933C
:1003E000A50081111EC08091E5008093A900909125
:1003F000AC009093A8009091AB009093A7009091CF
:10040000AA009093A6008111959A8091AC00811169
:10041000969A8091AB008111979A8091AA008111E0
:10042000C09A9091A9008091A500981301C0959859
:100430009091A8008091A500981301C09698909182
:10044000A7008091A500981301C097989091A600ED
:100450008091A500981301C0C0989F918F910F9033
:100460000FBE0F901F901895806487B98AE18A9516
:10047000F1F700C025E060E070E0CB01369A349BD4
:10048000FECF349A44B155B1640F751F811D911D83
:100490002150A1F725E030E040E050E034D7C90119
:1004A0000895C69A2FEF80E792E021508040904057
:1004B000E1F700C00000C698089587B3886287BB43
:1004C00088B3877D88BBBA9AC29880E58DB90895B4
:1004D0008D9A8E9A8F9AB89A959896989798C09870
:1004E000BF9883B7816083BF12BE89B7816089BF1F
:1004F000089549D680ED63D68091C200813019F00D
:10050000823061F155C082E05AD68091C1008130BD
:1005100089F48091DB00873138F48F5F28D64FD67D
:100520008091DB008F5F12C080E021D648D6109208
:10053000DB003EC08230E1F58091DB00882349F08A
:10054000815015D63CD68091DB0081508093DB0032
:100550002FC087E10CD633D687E1F8CF81E02FD6C4
:100560008091C100813089F48091DC008B3338F4B4
:100570008F5FFDD524D68091DC008F5F17C080E0AF
:10058000F6D51DD61092DC0013C0823089F480911C
:10059000DC00882339F08150EAD511D68091DC0047
:1005A000815004C08BE3E3D50AD68BE38093DC0053
:1005B00003C68091BF009091C0008930910509F475
:1005C0005EC030F48730910569F0089789F108958D
:1005D0008B30910509F49FC008F477C00C9709F49B
:1005E000C0C008958091BD009091BE0081309105FA
:1005F00081F48091CD009091CE008A30910510F465
:10060000019602C083E090E09093CE008093CD00ED
:100610000895029709F0C9C08091CD009091CE0055
:100620008530910510F00197EFCF8AE090E0ECCF94
:100630008091BD009091BE008130910571F4809150
:10064000CB009091CC008B33910510F401960FC034
:100650001092CC001092CB000895029709F0A5C02B
:100660008091CB009091CC00009731F0019790934E
:10067000CC008093CB0008958BE390E0F8CF80917D
:10068000BD009091BE008130910561F48091C90058
:100690009091CA008837910510F40F9611C08FE031
:1006A00090E00EC0029709F080C08091C90090913F
:1006B000CA008031910510F00F9702C088E790E0E2
:1006C0009093CA008093C90008958091BD009091D5
:1006D000BE008130910561F48091C7009091C800FF
:1006E0008531910510F4019611C08DE090E00EC0A7
:1006F000029709F05AC08091C7009091C8008E30CF
:10070000910510F0019702C085E190E09093C80038
:100710008093C70008958091BD009091BE00813004
:10072000910571F48091C5009091C6008B339105BD
:1007300010F4019611C01092C6001092C5000895E1
:10074000029799F58091C5009091C600009711F02D
:10075000019702C08BE390E09093C6008093C500A0
:1007600008958091BD009091BE008130910561F4A3
:100770008091C3009091C4008837910510F40F96C2
:1007800010C08FE090E00DC0029779F48091C30013
:100790009091C4008031910510F00F9702C088E756
:1007A00090E09093C4008093C30008951F93CF936B
:1007B000DF93D62FCAE06C2F73D5192F61E058DD77
:1007C00062E0812F55DD8D2F6C2F6AD5C92F63E034
:1007D0004FDD64E08C2FDF91CF911F9149CDD0D4B4
:1007E00077DEF4DCBE9A85E886B967DE33DD959A5C
:1007F000969A979AC09A8FEF83BD85B5886085BD1C
:1008000089B7806889BF85B5836085BD7894A398D2
:10081000BAD480EDD4D487E0D2D480E1D0D4CCD483
:1008200060ED80E0E6D4AFD481EDC9D4F6D48093F6
:10083000E600F3D48093E000F0D48093E400EDD49C
:100840008093E200EAD48093DE00E7D48093E7004F
:10085000FED48093DF00B0D48091E6007FD48093F3
:10086000DD008091E0007AD48093DC008091E40088
:1008700075D48093DB008091E20070D48093DA001D
:100880008091DF006BD48093D7008091E70066D41D
:100890008093D8008091DE0061D48093D90080914C
:1008A000DC008C3320F48091DB008831D8F06BD4ED
:1008B00080ED85D480E083D480E059D480D480E07A
:1008C00056D47DD480E053D47AD481E050D477D408
:1008D00087E14DD474D487E04AD471D484E147D4FD
:1008E0006ED46AD48AE090E062D59093CE00809373
:1008F000CD0088E090E05BD59093CC008093CB0056
:1009000086E090E054D59093CA008093C90084E0BB
:1009100090E04DD59093C8008093C70082E090E0AE
:1009200046D59093C6008093C50080E090E03FD507
:100930009093C4008093C300B2E02B2E312C882406
:100940008394912C04E610E0CAE0D0E080E08CDDD6
:10095000FC01F695E795F695E795F093A300E093F3
:10096000A2008091BF009091C000892B09F060C166
:100970008091C20081115CC1B79B14C12091DB0042
:1009800030E0ACE3B0E0FDD42091DC006B017C01F1
:10099000C20ED11CE11CF11CA7019601FED42091CE
:1009A000DD006B017C01C20ED11CE11CF11CC09268
:1009B000B500D092B600E092B700F092B800209156
:1009C000CD003091CE004091CB005091CC00A0E101
:1009D000BEE0D7D42B013C019A01ACE3B0E0D1D406
:1009E000460E571E681E791E4092AD005092AE0012
:1009F0006092AF007092B0004C145D046E047F04EE
:100A000008F0A6C0D701C60184199509A609B7093F
:100A10002C013D018093D3009093D400A093D50086
:100A2000B093D600A090C900B090CA006CE370E00B
:100A300057D46A157B0540F5CF01A0E0B0E09C01DA
:100A4000AD012A50310941095109C301B201615078
:100A500071098109910915D44CE34A9D90014B9D80
:100A6000300D11246901E12CF12CA70196012150D0
:100A700031094109510969D48AE0820F73DC9092EF
:100A8000BC008092BB0076C02091C7003091C800A6
:100A90004091C5005091C600A0E1BEE072D42B0188
:100AA0003C019A01ACE3B0E06CD4460E571E681EC0
:100AB000791E4092B1005092B2006092B3007092E1
:100AC000B4004C145D046E047F0408F04AC0C418DE
:100AD000D508E608F708C092CF00D092D000E09287
:100AE000D100F092D200A090C300B090C400C60123
:100AF0006CE370E0F5D36A157B0550F52F01612C8E
:100B0000712CA701960121503109410951096AE070
:100B100070E080E090E06419750986099709B1D307
:100B20004CE34A9D90014B9D300D11246901E12C4D
:100B3000F12CA7019601215031094109510905D431
:100B4000822F840D0FDC3092BC002092BB0012C0BB
:100B500080E008DCA4E0B0E0B093BC00A093BB0050
:100B600009C08E2FFFDBF3E0CF2ED12CD092BC003A
:100B7000C092BB002091B9003091BA008091BB00B7
:100B80009091BC002817390709F08BDB8091BB00DE
:100B90009091BC009093BA008093B90089B78160AE
:100BA00089BF02C08E2FDEDB60ED80E022D3EBD266
:100BB00081ED05D332D38093E6002FD38093E000FC
:100BC0002CD38093E40029D38093E20026D3809332
:100BD000DE0023D38093E7003AD38093DF00ECD28A
:100BE0008091E600BBD28093DD008091E000B6D218
:100BF0008093DC008091E400B1D28093DB0080918F
:100C0000E200ACD28093DA008091DF00A7D280931B
:100C1000D7008091E700A2D28093D8008091DE00B7
:100C20009DD28093D900B79B0AC089B7816006C066
:100C3000959896989798C09889B78E7F89BF80912C
:100C4000C200882341F08091C1008150823018F4A5
:100C500050DC1092C1008091BF009091C000892BA0
:100C600061F08091BD009091BE000197029728F439
:100C7000A0DC1092BE001092BD00D0DA92DA809310
:100C8000E300882309F405C18CDAF82E8093E10093
:100C9000E090E300E2E0DE2EED1451F1DE1420F0EE
:100CA00021E0E21669F0F5C08091BF009091C0008C
:100CB000A3E0EA16A9F1B4E0EB1609F464C0E9C0B8
:100CC000CC24C3948C11E5C0ECDB8091C200882356
:100CD00019F0F092C100DDC08091BF009091C0007A
:100CE000892B09F4DCC09092BE008092BD00D1C077
:100CF000DD24D3948D11CDC0D4DB8091C200882334
:100D000019F0E092C100C5C08091BF009091C00071
:100D1000892B09F4C4C03092BE002092BD00B9C036
:100D2000892B09F0B6C08091C20074E0E72EFE1056
:100D300002C0882331F0882309F4B1C021E0F21207
:100D4000AEC0AFDB8091C200811106C081E080930C
:100D5000C200A7DA99DA9DC0813021F482E0809345
:100D6000C20097C0823009F094C00DD280ED27D226
:100D700080E025D280E023D21FD293DA1092C20005
:100D80001092C10086C02091C200211182C0A4E04F
:100D9000FA1202C0009731F0892B09F480C0B1E04B
:100DA000FB1277C07EDB8091BF009091C00000975E
:100DB00031F477DA69DA67E0C62ED12C53C0873078
:100DC000910579F46091CD007091CE008AE090E0B9
:100DD000F3D258E0E52EF12CF092C000E092BF0073
:100DE00058C08830910579F46091CB007091CC00A7
:100DF00088E090E0E1D255DA89E090E09093C0007D
:100E00008093BF0046C08930910569F46091C900A4
:100E10007091CA0086E090E0CFD243DAD093C00050
:100E2000C093BF0036C08A30910571F46091C7004D
:100E30007091C80084E090E0BFD2ABE0B0E0B09326
:100E4000C000A093BF0025C08B30910581F4609154
:100E5000C5007091C60082E090E0AED222DA4CE08C
:100E6000C42ED12CD092C000C092BF0012C00C97EB
:100E700081F46091C3007091C40080E090E09CD246
:100E800010DA1092C0001092BF001092BE001092B3
:100E9000BD008091BF009091C000009749F58091FE
:100EA000C20081110CC16091DC008091DB007EDC0E
:100EB00063B3687082E0E2D98091BB009091BC007E
:100EC0008130910531F460E082E1D2D965E082E1C0
:100ED00007C0029731F460E083E1CAD965E083E19D
:100EE000C7D98091BF009091C000009709F4E7C076
:100EF0008930910509F46CC030F48730910569F0B0
:100F00000897A1F1DCC08B30910509F445C008F4C5
:100F100085C00C9709F4AEC0D2C08091A4008111A5
:100F200011C08091CD009091CE00BE01C5D1862F19
:100F300061E09ED98091CD009091CE00BE01BCD1E0
:100F400062E005C061E08BE093D962E08BE090D96C
:100F50008091CB009091CC00BE01AED1862F63E092
:100F600087D98091CB009091CC0080C08091CD003A
:100F70009091CE00BE01A0D1862F61E079D98091F9
:100F8000CD009091CE00BE0197D162E071D98091E1
:100F9000A400811117C0DCCF8091C7009091C800D8
:100FA000BE018AD1862F61E063D98091C7009091FC
:100FB000C800BE0181D162E05BD98091A400882382
:100FC00009F447C063E08BE053D964E08BE076C05E
:100FD0008091A400811119C08091C9009091CA002C
:100FE000B8016AD1862F61E043D98091C900909100
:100FF000CA00B80161D1BE015FD1862F62E038D945
:101000008091C9009091CA0051C061E08BE030D955
:1010100062E08BE02DD963E08BE04DC08091A400AD
:10102000811111C08091C7009091C800BE0144D1C8
:10103000862F61E01DD98091C7009091C800BE0144
:101040003BD162E005C061E08BE012D962E08BE049
:101050000FD98091C5009091C600BE012DD1862F79
:1010600063E006D98091C5009091C600BE0124D1ED
:1010700064E024C08091A4008111C7CF8091C30097
:101080009091C400B80118D1862F61E0F1D8809109
:10109000C3009091C400B8010FD1BE010DD1862FBD
:1010A00062E0E6D88091C3009091C400B80104D1F9
:1010B000BE0102D163E0DCD864E08DE0D9D8809134
:1010C000C200882309F442CC813019F08230F9F053
:1010D0003DCC8091A40081110FC08091DB003AE0EB
:1010E000F32E6F2DDDD061E0C3D88091DB006F2D32
:1010F000D7D0892F62E005C061E08BE0B9D862E00B
:101100008BE0B6D88091DC002AE0F22E15C08091E9
:10111000DB009AE0F92E6F2DC3D061E0A9D8809151
:10112000DB006F2DBDD0892F62E0A2D88091A40092
:1011300081110DC08091DC006F2DB2D063E098D892
:101140008091DC006F2DACD0892F64E005C063E096
:101150008BE08ED864E08BE08BD8F8CB982F9295FB
:101160009F708F702AE0929F800D112408956AE08D
:1011700097D0292F30E1839FC0011124822B08953D
:1011800080E280B9089584EA86BF8AE08093A10056
:1011900006B607FC10C08091A1008111F9CF28E0AC
:1011A00088E190E00FB6F894A895809341000FBEB7
:1011B00020934100FFCF089584E986BF089583B945
:1011C00084E886BF8AE08093A10006B607FC10C0C1
:1011D0008091A1008111F9CF28E088E190E00FB65D
:1011E000F894A895809341000FBE20934100FFCF53
:1011F00008951F93CF93DF931F92CDB7DEB7182FBB
:101200006983C1DF8981DBDF812FD9DF84E986BF74
:101210000F90DF91CF911F91089584EC86BF8AE0F3
:101220008093A10006B607FC10C08091A100811137
:10123000F9CF28E088E190E00FB6F894A895809364
:1012400041000FBE20934100FFCF83B1089584E891
:1012500086BF8AE08093A10006B607FC10C080918B
:10126000A1008111F9CF28E088E190E00FB6F89451
:10127000A895809341000FBE20934100FFCF83B11A
:101280000895DB018F939F9388D0BF91AF91A29F68
:10129000800D911DA39F900DB29F900D1124089574
:1012A000991B79E004C0991F961708F0961B881FB8
:1012B0007A95C9F780950895AA1BBB1B51E107C019
:1012C000AA1FBB1FA617B70710F0A61BB70B881FD6
:1012D000991F5A95A9F780959095BC01CD01089565
:1012E00097FB072E16F4009406D077FD08D0E4DFB4
:1012F00007FC05D03EF4909581959F4F0895709519
:1013000061957F4F0895A1E21A2EAA1BBB1BFD0118
:101310000DC0AA1FBB1FEE1FFF1FA217B307E407D4
:10132000F50720F0A21BB30BE40BF50B661F771F2C
:10133000881F991F1A9469F760957095809590950C
:101340009B01AC01BD01CF010895052E97FB16F45A
:1013500000940FD057FD05D0D6DF07FC02D046F42D
:1013600008C050954095309521953F4F4F4F5F4FA6
:10137000089590958095709561957F4F8F4F9F4F01
:101380000895A29FB001B39FC001A39F01D0B29F57
:10139000700D811D1124911D0895F3DFA59F900DFF
:1013A000B49F900DA49F800D911D11240895A8E174
:1013B000B0E042E050E005C012D0272F11C0DC01A0
:1013C000CB01FC01E199FECF06C0FFBBEEBBE09A6A
:1013D00031960DB20D9241505040B8F70895262F26
:1013E000E199FECF9FBB8EBB2DBB0FB6F894E29A5E
:0C13F000E19A0FBE01960895F894FFCF1B
:1013FC00F381D6C7A56777C1F7E70400081574B366
:0C140C0032F3E4170B0B0B0B0B0BFF0073
:00000001FF
